:04000000EEEF01F02E
:08000800046ED8CF05F0E0CF33
:1000100006F00001E9CF0CF0EACF07F0E1CF08F0DD
:10002000E2CF09F0D9CF0AF0DACF0BF0F3CF12F01C
:10003000F4CF13F0FACF14F000C00EF001C00FF0AF
:1000400002C010F003C011F0F2A82AEF00F0F2B2E3
:1000500057EF00F0F0A630EF00F0F0B060EF00F0E6
:100060009DAA36EF00F09EBA71EF00F00EC000F0CE
:100070000FC001F010C002F011C003F00CC0E9FF86
:1000800007C0EAFF078E08C0E1FF09C0E2FF0AC00F
:10009000D9FF0BC0DAFF12C0F3FF13C0F4FF14C086
:1000A000FAFF045006C0E0FF05C0D8FF10001E2A6A
:1000B0001E500A0802E11E6A1F2AF29236EF00F073
:1000C0001E061E50FF0804E11F5202E11E6A06D000
:1000D0001E50FF0803E1090E1E6E1F06F09036EF5A
:1000E00000F09EAAFED7AECF1CF01D809E9A36EF80
:1000F00000F0EA6A230EE96EEF500DE0060E016E85
:10010000006A002EFED7012EFBD77B0E006E002E5C
:10011000FED7EF2EF3D712002A50016A295C03E2C2
:1001200029C000F00CD0006A080E2B6E293600366C
:100130002A50005CD8B0006E01362B2EF7D7120083
:10014000200E24A8300E256E23C000F023AE08D068
:10015000001E002A00C023F02D0E256E248E248060
:10016000015023C029F0640E2A6ED6DF00C023F0B0
:10017000300E0124266E23C029F00A0E2A6ECCDF31
:10018000300E0024286E300E0124276E25C000F0AA
:10019000300E265C04E0248224BE248412D025C0C4
:1001A00026F0200E256E300E275C04E0248024BE4D
:1001B000248207D0D8A4248004E126C027F0200E92
:1001C000266E24B405D024B207D024B009D00CD0B8
:1001D00025509EA8FED7AD6E26509EA8FED7AD6EC8
:1001E00027509EA8FED7AD6E28509EA8FED7AD6EB4
:1001F00032EF02F0006A016A2A50D8902BB0002634
:10020000003201322BB20026003201322BB400261C
:10021000003201322BB60026003201322BB8002604
:10022000003201322BBA0026003201322BBC0026EC
:10023000003201322BBE0026003201328CEF01F079
:10024000286A266A0A0E276E256A2350241003E1C5
:10025000000E016EC1D02850282A036A2324E96EBB
:1002600024500320EA6EEFCF29F029502D080DE12C
:10027000010E266E2850282A036A2324E96E245092
:100280000320EA6EEFCF29F00DD029502B080AE1A8
:100290002850282A036A2324E96E24500320EA6E9A
:1002A000EFCF29F029502F08D8B08ED02950390827
:1002B000D8A08AD02950300821E1036A285023248D
:1002C000E96E24500320EA6EEF5078080AE0036AD2
:1002D00028502324E96E24500320EA6EEF5058087A
:1002E0000DE1100E276E282A2850282A036A23249D
:1002F000E96E24500320EA6EEFCF29F027500A0858
:100300001BE129502F0817E22950390814E30A0E7F
:100310002A6E25C02BF06ED7300E295C0124256E85
:100320002850282A036A2324E96E24500320EA6E09
:10033000EFCF29F0E6D748D02750100845E12950E3
:10034000600806E229507A0803E32950DF0B01D048
:100350002950296E29502F0803E22950390806E256
:100360002950400831E2295046082EE329502F0831
:100370000CE22950390809E325382A6EF00E2A16B6
:10038000300E295C2A24256E09D025382A6EF00EFD
:100390002A16410E295C0A0F2A24256E2850282A85
:1003A000036A2324E96E24500320EA6EEFCF29F07C
:1003B0002950600806E229507A0803E32950DF0B30
:1003C00001D02950296EC6D7262C04D027500A0800
:1003D00001E1256C25C001F049EF02F0F86AD09EDA
:1003E000078E810EAF6EA60EAC6E900EAB6E1D909A
:1003F0001E6A1F6A1F500A0DF3501E24206E030E42
:10040000216EC180C182C184C196070EB46E166A86
:10041000176AC190C182C184C186C19CC28CC28E40
:10042000C19EC280F288F0869D8AC00EF212D26A06
:100430001F500A0DF3501E24226E956A1EC08CFFB9
:10044000C80E236E56DE1F38236EF00E2316956AF3
:1004500023C08CFFC80E236E4CDE22C023F0180E82
:10046000246E6ED6200E9EA8FED7AD6E2150225C63
:1004700005E38A98939893948A7404D08A88939811
:100480008A9493941DA007D01D90246A1C0E236E9D
:0A049000D7D601C021F0CCD703003D
:020000040030CA
:0E00000000220C0E000081000FC00FE00F4028
:00000001FF
;PIC18F458
;CRC=A02B  CREATED="21-mai-21 11:35"
